:100000000C9445010C9476010C9476010C947601C5
:100010000C9476010C9476010C9476010C94760184
:100020000C9476010C9476010C9476010C94760174
:100030000C9476010C9476010C9476010C94760164
:100040000C9476010C9476010C9476010C94760154
:100050000C9476010C9476010C9476010C944E0667
:100060000C9476010C9476010C9476010C94760134
:100070000C9476010C9476010C9476010C94760124
:100080000C9476010C9476010C9476010C94760114
:100090000C9476010C9476010C9476010C949806DD
:1000A0000C9476010C9476010C9476010C947601F4
:1000B0000C9476010C9476010C9476010C947601E4
:1000C0000C9476010C9476010C9476010C947601D4
:1000D0000C9476010C9476010C9476010C947601C4
:1000E0000C9476010C945E020C9493020C947702AB
:1000F0000C94BC070C94CA020C94DA030C940C0206
:100100000C94ED030C940D020C9462020C94CB033E
:100110000C948F020C947D020C940B020C945802E8
:100120000C9499020C94FB020C946D020C948B02BB
:100130000C9473020C9450040C9421040C943B0313
:100140000C949D020C94CA030C9466020C949802C1
:100150000C94F4030C946A020C9485020C945104E0
:100160000C9481020C94F405000021002400270067
:100170002A002D00300033000101000004010701B6
:100180000A0100002200250028002B002E0031006B
:10019000340002010000050108010B0100002000ED
:1001A0002300260029002C002F003200000100004F
:1001B00003010601090105050505070508080808EA
:1001C000020202020A0A08080404040401010101EF
:1001D00001010101030303030303030304070707EA
:1001E0000C0C0C0C0C0C0C0C02020202060606068F
:1001F000060606060B0B0B0B0B0B0B0B010210205C
:10020000200808102040102040800201020108044C
:1002100002010102040810204080804020100804E0
:100220000201800402018040201008040201080439
:10023000020101020408102040800102040810207D
:10024000408000000A0B02090C0D0E080703040190
:10025000000000000000000000000000000000009E
:10026000000000000000000000000000000012116B
:10027000100000000000000000000000000000006E
:100280000000000000000000BC0711241FBECFEFDB
:10029000D1E2DEBFCDBF00E00CBF12E0A0E0B2E0D3
:1002A000EEE6F7E100E00BBF02C007900D92A23727
:1002B000B107D9F723E0A2E7B2E001C01D92AA3C42
:1002C000B207E1F711E0C5E4D1E000E006C02197F4
:1002D0000109802FFE010E94AD0BC434D10780E0DC
:1002E0000807A9F70E944A080C94B50B0C9400006B
:1002F00096E0899FD0011124AD5BBC4F90967C9312
:100300006E935F9791E091969C939197E091B003E3
:10031000F091B1039091AF03992339F0309751F0E8
:10032000811108C080915F031994309719F05C9691
:100330008C91FACF0895CF92DF92EF92FF920F93B4
:100340001F9396E0899FF0011124ED5BFC4F11A2F1
:10035000278D30A12130310551F178F0223031055F
:1003600009F451C02330310509F452C01F910F9197
:10037000FF90EF90DF90CF9008956623B9F361E08E
:1003800070E00E9478012FB7F89480913303909128
:100390003403A0913503B09136032FBF80939B03A4
:1003A00090939C03A0939D03B0939E03DFCF9FB7D0
:1003B000F894C0903303D0903403E0903503F0906C
:1003C00036039FBF00919B0310919C0320919D03D6
:1003D00030919E03C01AD10AE20AF30A0091AD03DC
:1003E0001091AE0330E020E00C151D052E053F05F1
:1003F00050F462E070E01F910F91FF90EF90DF905A
:10040000CF900C9478016111B1CF63E070E0F3CF2D
:1004100070E060E0F0CF08950895AF92BF92CF9260
:10042000DF92EF92FF920F931F93CF93DF936C01B4
:100430007B018B01040F151FEB015E01AE18BF0895
:10044000C017D10759F06991D601ED91FC91019047
:10045000F081E02DC6011995892B79F7C501DF914F
:10046000CF911F910F91FF90EF90DF90CF90BF90B1
:10047000AF9008958150823108F05AC0E82FF0E023
:100480008827EA5BFD4F8F4F0C94AD0B66026A0222
:1004900058025E02620298026D02730277027D02C8
:1004A000810285028B028F029802930299029D02BB
:1004B000809180008F7780938000089580918000E4
:1004C0008F7DF9CF80918000877FF5CF84B58F77BE
:1004D00084BD089584B58F7DFBCF8091B0008F7768
:1004E0008093B00008958091B0008F7DF9CF809106
:1004F00090008F77809390000895809190008F7D79
:10050000F9CF80919000877FF5CF8091A0008F7701
:100510008093A00008958091A0008F7DF9CF8091F5
:10052000A000877FF5CF809120018F7780932001F5
:100530000895809120018F7DF9CF80912001877FE0
:10054000F5CFCF93DF93282F30E0F901EE5BFD4F1D
:100550008491F901E450FE4FD491F901EA54FE4F21
:10056000C491CC23A1F081110E943A02EC2FF0E05B
:10057000EE0FFF1FE456FE4FA591B491EC91ED23D1
:1005800081E090E009F480E0DF91CF91089580E070
:1005900090E0FACF862F0C94A1021F93CF93DF93A4
:1005A000282F30E0F901EE5BFD4F8491F901E45012
:1005B000FE4FD491F901EA54FE4FC491CC23A9F027
:1005C000162F81110E943A02EC2FF0E0EE0FFF1F70
:1005D000EE57FE4FA591B4918FB7F894EC9111119D
:1005E00008C0D095DE23DC938FBFDF91CF911F91A0
:1005F0000895DE2BF8CF862F642F0C94CD02CF9375
:10060000DF9390E0FC01E450FE4F24918A549E4F0A
:10061000FC0184918823C9F090E0880F991FFC01A8
:10062000E859FE4FA591B491FC01EE57FE4FC591DC
:10063000D49161110DC09FB7F8948C9120958223BD
:100640008C938881282328839FBFDF91CF910895C1
:10065000623051F49FB7F8943C91822F80958323A8
:100660008C93E8812E2BEFCF8FB7F894EC912E2B43
:100670002C938FBFEACF862F642F0C94FF023FB7D5
:10068000F8948091D7029091D802A091D902B091AC
:10069000DA0226B5A89B05C02F3F19F00196A11DCF
:1006A000B11D3FBFBA2FA92F982F8827BC01CD01BC
:1006B000620F711D811D911D42E0660F771F881F1B
:1006C000991F4A95D1F708952091B302260F332739
:1006D000331F21323105ECF420910703FC0190E037
:1006E00080E0243069F082E00895A091B302219166
:1006F000AC014D565D4FA40FB52FB11D2C93019643
:10070000861798F38091B302680F6093B30280E07C
:10071000089581E008951092070381E08093060315
:100720001092E10261E084E10E94CD0261E085E186
:100730000E94CD02E9EBF0E080818E7F8083808192
:100740008D7F808388E48093B80085E48093BC002B
:100750000895CF93DF9391E0909392028823B9F0AC
:10076000C091B800D091BA008091BC008A7B809380
:10077000BC0060E084E10E94CD0260E085E10E945F
:10078000CD020E948B03D093BA00C093B800DF91D2
:10079000CF9108950895E091E0028091DF02E8177B
:1007A00030F4F0E0EE58FD4F808190E008958FEF37
:1007B0009FEF08959091E0028091DF022FEF3FEFCD
:1007C000981748F4E92FF0E0EE58FD4F208130E013
:1007D0009F5F9093E002C90108958091DF0290919C
:1007E000E002891B990B0895CF92DF92EF92FF925E
:1007F0000F931F93CF93DF937C01CB018A0120914C
:100800000D03222389F0EB016B01C40ED51ECC151C
:10081000DD0569F06991D701ED91FC910190F081BE
:10082000E02DC7011995F3CF642F0E946403C8011E
:10083000DF91CF911F910F91FF90EF90DF90CF90BC
:100840000895CF93DF931F92CDB7DEB769832091D0
:100850000D032223F9F020913003203258F021E0DB
:1008600030E0FC013383228390E080E00F90DF9141
:10087000CF91089580910E03E82FF0E0E15FFC4FE7
:10088000998190838F5F80930E038093300381E082
:1008900090E0ECCF61E0CE0101960E946403F7CFB7
:1008A000089590E080E008958F929F92AF92BF925A
:1008B0000F931F93CF93DF93CDB7DEB7A1970FB6FA
:1008C000F894DEBF0FBECDBF19A2423008F44AE053
:1008D0008E010F5D1F4F842E912CB12CA12CA501F0
:1008E00094010E948B0BE62FB901CA01EA3044F54E
:1008F000E05DD801EE938D01232B242B252B79F776
:1009000090E080E0109769F0FD0101900020E9F788
:100910003197AF014A1B5B0BBD0182EB93E00E9454
:100920000D02A1960FB6F894DEBF0FBECDBFDF91CA
:10093000CF911F910F91BF90AF909F908F9008958E
:10094000E95CD7CFFC0101900020E9F73197AF01B6
:10095000481B590BBC0182EB93E00C940D02CF9322
:10096000DF93EC0160E08E810E94CD0261E08E8118
:100970000E94CD0260E08E810E94CD028BE891E062
:100980000197F1F7DF91CF910895CF92DF92EF9227
:10099000FF920F931F93CF93DF936C017C0187E04D
:1009A000E80EF11CD0E0C0E0062F10E0B8010C2EDC
:1009B00002C0759567950A94E2F76170F70181911D
:1009C0007F010E94CD022196C430D10579F7C6017E
:1009D000DF91CF911F910F91FF90EF90DF90CF901B
:1009E0000C94AF04CF92DF92EF92FF920F931F937C
:1009F000CF93DF93EC01F62E642F8C810E94CD0201
:100A00008D818F3F19F060E00E94CD020F2D10E024
:100A10008F8584FF25C06E0187E0C80ED11CF12CA4
:100A2000E12CB8010E2C02C0759567950A94E2F787
:100A30006170F60181916F010E94CD02FFEFEF1A04
:100A4000FF0A88E0E816F10461F7CE01DF91CF914B
:100A50001F910F91FF90EF90DF90CF900C94AF0417
:100A6000B80184E0759567958A95E1F7CE010E94FB
:100A7000C5046F2DCE01DF91CF911F910F91FF9093
:100A8000EF90DF90CF900C94C50440E0682F82EB8C
:100A900093E00C94F20481E00E9445058BE39FE112
:100AA0000197F1F70895CF93DF93823029F4909165
:100AB000C10398609093C1038093C5031092C6034D
:100AC00080E48093C70380E18093C80380E580932E
:100AD000C90361E08091B6030E94FF028091B703D1
:100AE0008F3F19F061E00E94FF0261E08091B8033E
:100AF0000E94FF02C2EBD3E09E01225B3340809153
:100B0000C10384FD0BC084E090E0219628173907CB
:100B100044F461E08E810E94FF02EECF88E090E015
:100B2000F4CF8BE39DE00197F1F760E08091B6038D
:100B30000E94CD0260E08091B8030E94CD028091B6
:100B4000B7038F3F19F060E00E94CD028091C1038E
:100B500084FD34C063E082EB93E00E94C504CBE4E3
:100B6000D6E4CE010197F1F763E082EB93E00E94B7
:100B7000C5042197F1F763E082EB93E00E94C5047E
:100B800083E592E00197F1F762E082EB93E00E9447
:100B9000C5048091C10380620E94450584E0809372
:100BA000C2038CE00E9445050E944B0582E08093C1
:100BB000C30386E0DF91CF910C94450580620E94CB
:100BC00045058BE496E40197F1F78091C1038062BB
:100BD0000E94450583E592E00197F1F78091C103FA
:100BE00080620E944505D5CF41E00E94F20481E079
:100BF00090E00895CF92DF92EF92FF926B017C011B
:100C000041E06DE282EB93E00E94F20466277727D1
:100C1000CB016C197D098E099F094AE00E9454049A
:100C20000196FF90EF90DF90CF90089585ED80932F
:100C3000BC008091090390910A03A0910B03B0912D
:100C40000C030796A11DB11D23E0B695A7959795B6
:100C500087952A95D1F72091BC0024FD03C01092FE
:100C6000070308954091090350910A0360910B0313
:100C700070910C03452B462B472B69F30097A10578
:100C8000B10541F025E32A95F1F700000197A1098C
:100C9000B109E1CF809108030C94A9031F920F9230
:100CA0000FB60F9211242F933F938F939F93AF937F
:100CB000BF938091330390913403A0913503B09199
:100CC00036033091D60223E0230F2D3758F50196D5
:100CD000A11DB11D2093D60280933303909334035A
:100CE000A0933503B09336038091D7029091D80238
:100CF000A091D902B091DA020196A11DB11D809395
:100D0000D7029093D802A093D902B093DA02BF9190
:100D1000AF919F918F913F912F910F900FBE0F90A8
:100D20001F90189526E8230F0296A11DB11DD2CF62
:100D30001F920F920FB60F9211240BB60F922F93A2
:100D40003F934F935F936F937F938F939F93AF9353
:100D5000BF93EF93FF938091B900887F803609F4A9
:100D60004DC008F040C0883209F4A9C028F5803190
:100D700009F49DC0C8F4882309F4FBC0883009F445
:100D800096C0FF91EF91BF91AF919F918F917F910D
:100D90006F915F914F913F912F910F900BBE0F90EC
:100DA0000FBE0F901F901895883109F488C08032CB
:100DB00041F78093050314C0803409F49DC040F4CA
:100DC0008033B9F38833E9F68093050385ECB0C02E
:100DD000803509F485C0883509F496C0883489F6D1
:100DE0000E941606CECF883909F48CC038F58837B2
:100DF00029F050F4883611F0803719F683E080939B
:100E000007031092D50257C0883809F47BC0803997
:100E100019F0803809F0B5CF8091D502803208F002
:100E200071C0E091D50281E08E0F8093D502809150
:100E3000BB00F0E0EB54FD4F80833DC0803B39F0B8
:100E4000E0F4803A09F479C0883A09F09ACF84E056
:100E5000809307031092B4021092B302E091DD0276
:100E6000F091DE0219958091B30281110FC081E0EB
:100E70008093B3021092930209C0803C09F4A6CF7C
:100E8000883C09F4A3CF883B09F07BCFE091B40202
:100E900081E08E0F8093B402F0E0ED56FD4F80812B
:100EA0008093BB009091B4028091B30229C08091DD
:100EB000E2028093BB0085EC8093BC0062CF9091EE
:100EC000040380910303981758F5E091040381E02F
:100ED0008E0F80930403F0E0ED51FD4F8081E9CF48
:100EE000E091040381E08E0F809304038091BB00A6
:100EF000F0E0ED51FD4F8083909104038091030356
:100F00009817C8F285E8D8CFE091040381E08E0FEE
:100F1000809304038091BB00F0E0ED51FD4F80838E
:100F20008091060381115CCF81E08093E10284EA25
:100F30008093BC001092070324CF85EC8093BC0003
:100F4000109207038091D502803230F4E091D502EF
:100F5000F0E0EB54FD4F10826091D50270E0E0911B
:100F6000DB02F091DC0285EB92E019951092D5023C
:100F700008CF1092050334CF10923A031092390330
:100F800088EE93E0A0E0B0E080933B0390933C03B5
:100F9000A0933D03B0933E0387E192E09093380322
:100FA000809337031092B5031092B40383E392E069
:100FB0009093B3038093B2038CE08093B6038BE0ED
:100FC0008093B7038AE08093B80385E08093B903E8
:100FD00084E08093BA0383E08093BB0382E0809334
:100FE000BC031092BD031092BE031092BF03109277
:100FF000C0031092C10381E00E9453051092450383
:10100000109249031092480310924A0389E292E039
:101010009093440380934303EFE5F3E0108214823E
:1010200013821582369683E0EB39F807B9F783E02F
:1010300092E09093A6038093A50380E092E09093C2
:10104000A8038093A70384E08093A90383E080939F
:10105000AA0387E092E09093A4038093A3038AE01D
:1010600090E09093AC038093AB0384EF91E0909376
:10107000AE038093AD031092B1031092B0031092AF
:101080009F031092A0031092A1031092A20310924A
:10109000AF030895789484B5826084BD84B581607F
:1010A00084BD85B5826085BD85B5816085BD809133
:1010B0006E00816080936E001092810080918100AB
:1010C00082608093810080918100816080938100A3
:1010D000809180008160809380008091B100846065
:1010E0008093B1008091B00081608093B0008091C6
:1010F0009100826080939100809191008160809343
:101100009100809190008160809390008091A10077
:1011100082608093A1008091A10081608093A100F2
:101120008091A00081608093A00080912101826065
:101130008093210180912101816080932101809120
:10114000200181608093200180917A0084608093E7
:101150007A0080917A00826080937A0080917A0090
:10116000816080937A0080917A00806880937A0011
:101170001092C10082E00E9453058BE392E00E942E
:10118000A204E091C503E23008F061C0E150F0E054
:10119000EE54FC4F848980680E94450561E080E23E
:1011A0000E94FF021092E0021092DF0210920E03E2
:1011B000109230030E948B038BE092E09093DE024A
:1011C0008093DD028CE092E09093DC028093DB025E
:1011D000812C912C540183945FE7252E53E0352E0A
:1011E00021E02093AF038FB7F894409133035091DF
:1011F000340360913503709136038FBF80919F0354
:101200009091A003A091A103B091A203481B590B98
:101210006A0B7B0B8091AB039091AC03B0E0A0E034
:1012200084179507A607B70708F017C1C0E080919B
:10123000A903C81770F4E091A503F091A603EC0F81
:10124000F11D62E080810E94FF02CF5FF0CFE1E0FC
:101250009ECF712C8091AA03781608F05FC0072DED
:1012600010E0E091A703F091A803E00FF11F61E007
:1012700080810E94FF02E091A703F091A803E00F94
:10128000F11F60E080810E94CD02D501C401072CCE
:1012900004C0880F991FAA1FBB1F0A94D2F76C01C4
:1012A0007C01E094F094512C8091A9035816F8F435
:1012B000C52DD0E0E091A503F091A603EC0FFD1F32
:1012C00080810E94A1022496CC0FDD1FCD5BDC4FF4
:1012D000892B41F4888199818C299D299983888360
:1012E0005394E2CF888199818E219F21F7CFE0919D
:1012F000A703F091A803E00FF11F61E080810E9435
:10130000CD028091A7039091A803080F191F60E0F8
:10131000F80180810E94FF0273949CCFC3E4D3E064
:101320008E01F801878D90A1892B31F4148E2FEF57
:101330003FEF368F258F11A20A5F1F4F201631060F
:1013400081F7F12C8091A903F81608F053C0E12C25
:101350008F2D90E0880F991FFC01E55BFC4F6F011A
:101360002091AA03E21608F043C0F6016081718162
:101370000E2C02C0769567950A94E2F7F29E9001D2
:1013800011242E0D311DE3E4F3E080E0458D568DF0
:101390002417350709F4BDC18F5F36968A30B1F73F
:1013A00060FF24C0E3E4F3E090E080E0448D41116D
:1013B00018C0E091A303F091A403E20FF31F408152
:1013C00056E0589FF001599FF00D1124ED5BFC4F42
:1013D000448F368F258F10A2178E61E00E949B01EB
:1013E00005C0019636968A30910501F7E394B8CF8F
:1013F000F394A8CF80E099A19111892F2696C01768
:10140000D107C9F79FB7F894409133035091340343
:1014100060913503709136039FBF40939F035093B3
:10142000A0036093A1037093A2038823B1F080917D
:101430006403882391F08091620390916303019784
:1014400061F4C0915F03C1110BC020E030E0232B99
:1014500009F4C6CE0E940000C3CE1092AF03F5CFB0
:101460000E944B0580ED8C0F8A30E0F480913103AF
:1014700090913203892B89F46C2FCC0F770B60533A
:1014800071097093320360933103072E000C880BAF
:10149000990B4AE00E945404D8CF87E492E00E945E
:1014A000A204D3CFC33239F4109232031092310325
:1014B0008BE392E0F4CF87E692E0CA3281F781E0D5
:1014C00080930D0380932F0310920E03109230032C
:1014D0006091310387E393E00E942104C0913003BF
:1014E000C13208F090C00E943F036B017C018091E3
:1014F0000703811163C092E090930703E1E0E0935A
:101500000603FFEFF093050310920403C093030357
:10151000AFE0B3E0E3EEF2E0C813CBC01092E2021A
:101520008091E20282608093E2028091E102813048
:1015300009F0C3C01092E1020E943F036B017C01DD
:101540008091E2028093BB008091090390910A038D
:10155000A0910B03B0910C03892B8A2B8B2B99F054
:101560000E943F030091090310910A0320910B038D
:1015700030910C036C197D098E099F090617170716
:1015800028073907E0F18091BC0083FDD9CF85ECB5
:101590008093BC000E943F036B017C018091070394
:1015A000823009F48EC0809105038F3F61F18091F4
:1015B0000503803241F18091050325C08091090324
:1015C00090910A03A0910B03B0910C03892B8A2BF5
:1015D0008B2B09F48CCF0E943F03009109031091DB
:1015E0000A0320910B0330910C036C197D098E09BD
:1015F0009F09061717072807390708F078CF809149
:1016000008030E94A90310920E0310923003109257
:101610000D030E944B0581E592E00E94A2046091B7
:10162000310370913203072E000C880B990B97FF42
:101630006AC00E94FA05E091C503E23008F067C075
:10164000E150F0E0EE54FC4F848980680E9445052B
:101650008DE592E00E94A20461E080E20E94CD024A
:101660000E943F032B013C0184E6C82ED12CE12CC3
:10167000F12C0E943F036419750986099709683E99
:10168000734081059105A8F331E0C31AD108E10840
:10169000F10858EE450E53E0551E611C711CC11433
:1016A000D104E104F10429F760E080E20E94CD0258
:1016B000CCCE9D9191938F5F2FCF25EE2093BC00D0
:1016C00069CF8091090390910A03A0910B03B09117
:1016D0000C03892B8A2B8B2B09F460CF0E943F03CC
:1016E0000091090310910A0320910B0330910C0320
:1016F0006C197D098E099F090617170728073907F6
:1017000008F04CCF7CCF4AE00E94540494CFE1E033
:1017100098CF617063CEA1E21A2EAA1BBB1BFD01FC
:101720000DC0AA1FBB1FEE1FFF1FA217B307E407C0
:10173000F50720F0A21BB30BE40BF50B661F771F18
:10174000881F991F1A9469F76095709580959095F8
:101750009B01AC01BD01CF010895EE0FFF1F881F53
:0E1760008BBF0790F691E02D1994F894FFCFFF
:10176E0018191A1B1C1D1E313233343536373839D1
:10177E002A3023000000002104F4035104CA03EDB3
:10178E0003DA03CB03000000003B03FB02CA020096
:10179E00000000F4050D0251045004504C5A20561E
:1017AE006F7465203A29006E6F742076616C6964DF
:1017BE0000596F757220766F74653A200054686117
:1017CE006E6B73203A29004E6F742056616C6964FB
:0217DE002100E8
:00000001FF
