:100000000C9447010C9478010C9478010C947801BD
:100010000C9478010C9478010C9478010C9478017C
:100020000C9478010C9478010C9478010C9478016C
:100030000C9478010C9478010C9478010C9478015C
:100040000C9478010C9478010C9478010C9478014C
:100050000C9478010C9478010C9478010C9494061B
:100060000C9478010C9478010C9478010C9478012C
:100070000C9478010C9478010C9478010C9478011C
:100080000C9478010C9478010C9478010C9478010C
:100090000C9478010C9478010C9478010C94DE0691
:1000A0000C9478010C9478010C9478010C947801EC
:1000B0000C9478010C9478010C9478010C947801DC
:1000C0000C9478010C9478010C9478010C947801CC
:1000D0000C9478010C9478010C9478010C947801BC
:1000E0000C9478010C9450040C9409040C94C302F1
:1000F0000C94AC020C9491020C9433040C949E0268
:100100000C943E040C9495020C9419040C9402086F
:100110000C947B060C94C8020C94B0020C94A802B8
:100120000C940E020C944F040C94F5020C942C04C5
:100130000C94A2020C94F3050C940A040C9438025B
:100140000C9483020C94B6020C94C4020C94BE026C
:100150000C948D020C940D020C9489020C94BA023A
:100160000C9466030C9426030C9498020000210062
:10017000240027002A002D00300033000101000078
:10018000040107010A0100002200250028002B00BD
:100190002E003100340002010000050108010B01AE
:1001A000000020002300260029002C002F00320030
:1001B0000001000003010601090105050505070509
:1001C00008080808020202020A0A080804040404D3
:1001D00001010101010101010303030303030303FF
:1001E000040707070C0C0C0C0C0C0C0C020202028E
:1001F00006060606060606060B0B0B0B0B0B0B0B77
:100200000102102020080810204010204080020128
:10021000020108040201010204081020408080400D
:10022000201008040201800402018040201008040C
:1002300002010804020101020408102040800102AA
:1002400004081020408000000A0B02090C0D0E0863
:10025000070304010000000000000000000000008F
:10026000000000000000000000000000000000008E
:10027000000012111000000000000000000000004B
:10028000000000000000000000000000020811242F
:100290001FBECFEFD1E2DEBFCDBF00E00CBF12E04A
:1002A000A0E0B2E0E8E9F8E100E00BBF02C007908F
:1002B0000D92A23FB107D9F724E0A2EFB2E001C04E
:1002C0001D92A932B207E1F711E0C7E4D1E000E0E6
:1002D00006C021970109802FFE010E94420CC634FE
:1002E000D10780E00807A9F70E9490080C944A0CF7
:1002F0000C94000096E0899FD0011124AE55BC4FAC
:1003000090967C936E935F9791E091969C939197D2
:10031000E0910F04F091100490910E04992339F0AC
:10032000309751F0811108C08091BE031994309725
:1003300019F05C968C91FACF0895CF92DF92EF92EC
:10034000FF920F931F9396E0899FF0011124EE55C1
:10035000FC4F11A2278D30A12130310551F178F0E9
:100360002230310509F451C02330310509F452C05F
:100370001F910F91FF90EF90DF90CF90089566232B
:10038000B9F361E070E00E947A012FB7F894809190
:10039000920390919303A0919403B09195032FBF82
:1003A0008093FA039093FB03A093FC03B093FD03A7
:1003B000DFCF9FB7F894C0909203D0909303E09062
:1003C0009403F09095039FBF0091FA031091FB03F3
:1003D0002091FC033091FD03C01AD10AE20AF30A0E
:1003E00000910C0410910D0430E020E00C151D0567
:1003F0002E053F0550F462E070E01F910F91FF90D1
:10040000EF90DF90CF900C947A016111B1CF63E04F
:1004100070E0F3CF70E060E0F0CF0895CF93DF930A
:10042000AC01E0919003F09191033097F1F090913D
:100430008F0380918E039817C0F090E0292F30E051
:100440002617370754F4D901AD50BD4F240F351F7F
:10045000E90128812C939F5FF1CF10928F03609365
:100460008E03CB01DF91CF911994DF91CF91089545
:10047000AF92BF92CF92DF92EF92FF920F931F93B2
:10048000CF93DF936C017B018B01040F151FEB01F0
:100490005E01AE18BF08C017D10759F06991D601A7
:1004A000ED91FC910190F081E02DC6011995892B09
:1004B00079F7C501DF91CF911F910F91FF90EF90D8
:1004C000DF90CF90BF90AF9008958150823108F0B7
:1004D0005AC0E82FF0E08827EF58FD4F8F4F0C945B
:1004E000420C91029502830289028D02C302980296
:1004F0009E02A202A802AC02B002B602BA02C30275
:10050000BE02C402C802809180008F778093800071
:100510000895809180008F7DF9CF80918000877F42
:10052000F5CF84B58F7784BD089584B58F7DFBCFDB
:100530008091B0008F778093B00008958091B000D3
:100540008F7DF9CF809190008F77809390000895F0
:10055000809190008F7DF9CF80919000877FF5CFBB
:100560008091A0008F778093A00008958091A000D3
:100570008F7DF9CF8091A000877FF5CF80912001FA
:100580008F77809320010895809120018F7DF9CF8E
:1005900080912001877FF5CFCF93DF93282F30E024
:1005A000F901EA5BFD4F8491F901E050FE4FD491CF
:1005B000F901E654FE4FC491CC23A1F081110E94B1
:1005C0006502EC2FF0E0EE0FFF1FE056FE4FA59105
:1005D000B491EC91ED2381E090E009F480E0DF91AB
:1005E000CF91089580E090E0FACF862F0C94CC0252
:1005F0001F93CF93DF93282F30E0F901EA5BFD4F83
:100600008491F901E050FE4FD491F901E654FE4F78
:10061000C491CC23A9F0162F81110E946502EC2F02
:10062000F0E0EE0FFF1FEA57FE4FA591B4918FB790
:10063000F894EC91111108C0D095DE23DC938FBFA4
:10064000DF91CF911F910895DE2BF8CF862F642F75
:100650000C94F802CF93DF9390E0FC01E050FE4F42
:10066000249186549E4FFC0184918823C9F090E028
:10067000880F991FFC01E459FE4FA591B491FC012C
:10068000EA57FE4FC591D49161110DC09FB7F89400
:100690008C91209582238C938881282328839FBF67
:1006A000DF91CF910895623051F49FB7F8943C9157
:1006B000822F809583238C93E8812E2BEFCF8FB7E9
:1006C000F894EC912E2B2C938FBFEACF862F642FBA
:1006D0000C942A033FB7F89480918403909185038A
:1006E000A0918603B091870326B5A89B05C02F3F34
:1006F00019F00196A11DB11D3FBFBA2FA92F982F48
:100700008827BC01CD01620F711D811D911D42E042
:10071000660F771F881F991F4A95D1F708958F920A
:100720009F92AF92BF92CF92DF92EF92FF920E9480
:100730006A034B015C0184E6C82ED12CE12CF12C1C
:100740000E946A03681979098A099B09683E734007
:1007500081059105A8F321E0C21AD108E108F1084A
:1007600088EE880E83E0981EA11CB11CC114D10430
:10077000E104F10429F7FF90EF90DF90CF90BF9054
:10078000AF909F908F90089520913903260F3327C3
:10079000331F21323105ECF420915D03FC0190E020
:1007A00080E0243069F082E00895A091390321911E
:1007B000AC01475E5C4FA40FB52FB11D2C93019681
:1007C000861798F380913903680F6093390380E0AE
:1007D000089581E0089510925D0381E080935F03A6
:1007E00010925E0361E084E10E94F80261E085E11D
:1007F0000E94F802E9EBF0E080818E7F80838081A7
:100800008D7F808388E48093B80085E48093BC006A
:1008100008950895E0918F0380918E03E81730F4D6
:10082000F0E0ED50FD4F808190E008958FEF9FEF55
:10083000089590918F0380918E032FEF3FEF9817CB
:1008400048F4E92FF0E0ED50FD4F208130E09F5F4C
:1008500090938F03C901089580918E0390918F0327
:10086000891B990B0895CF93DF93CB01EA01642F85
:100870000E94C403CE01DF91CF910895CF93DF93FF
:100880001F92CDB7DEB7698361E0CE0101960E9469
:10089000C40381E090E00F90DF91CF910895089517
:1008A00090E080E008958F929F92AF92BF920F9355
:1008B0001F93CF93DF93CDB7DEB7A1970FB6F89410
:1008C000DEBF0FBECDBF19A2423008F44AE08E0150
:1008D0000F5D1F4F842E912CB12CA12CA5019401EA
:1008E0000E94200CE62FB901CA01EA3044F5E05D10
:1008F000D801EE938D01232B242B252B79F790E043
:1009000080E0109769F0FD0101900020E9F7319730
:10091000AF014A1B5B0BBD0181E194E00E943802EC
:10092000A1960FB6F894DEBF0FBECDBFDF91CF9179
:100930001F910F91BF90AF909F908F900895E95CA9
:10094000D7CFFC0101900020E9F73197AF01481B98
:10095000590BBC0181E194E00C943802CF93DF93F2
:10096000EC0160E08E810E94F80261E08E810E94BD
:10097000F80260E08E810E94F8028BE891E0019716
:10098000F1F7DF91CF910895CF92DF92EF92FF922E
:100990000F931F93CF93DF936C017C0187E0E80EE8
:1009A000F11CD0E0C0E0062F10E0B8010C2E02C010
:1009B000759567950A94E2F76170F70181917F015F
:1009C0000E94F8022196C430D10579F7C601DF9163
:1009D000CF911F910F91FF90EF90DF90CF900C94EB
:1009E000AE04CF92DF92EF92FF920F931F93CF93BB
:1009F000DF93EC01F62E642F8C810E94F8028D812A
:100A00008F3F19F060E00E94F8020F2D10E08F85F3
:100A100084FF25C06E0187E0C80ED11CF12CE12CAB
:100A2000B8010E2C02C0759567950A94E2F76170C3
:100A3000F60181916F010E94F802FFEFEF1AFF0AA1
:100A400088E0E816F10461F7CE01DF91CF911F91A4
:100A50000F91FF90EF90DF90CF900C94AE04B8010F
:100A600084E0759567958A95E1F7CE010E94C404EC
:100A70006F2DCE01DF91CF911F910F91FF90EF90DD
:100A8000DF90CF900C94C40440E0682F81E194E0A3
:100A90000C94F10481E00E9444058BE39FE10197EF
:100AA000F1F70895CF93DF93823029F490912004D9
:100AB000986090932004809324041092250480E48D
:100AC0008093260480E18093270480E580932804A6
:100AD00061E0809115040E942A03809116048F3FE3
:100AE00019F061E00E942A0361E0809117040E94DE
:100AF0002A03C1E1D4E09E012151344080912004B9
:100B000084FD0BC084E090E021962817390744F457
:100B100061E08E810E942A03EECF88E090E0F4CF5E
:100B20008BE39DE00197F1F760E0809115040E944E
:100B3000F80260E0809117040E94F8028091160488
:100B40008F3F19F060E00E94F8028091200484FD3C
:100B500034C063E081E194E00E94C404CBE4D6E4B5
:100B6000CE010197F1F763E081E194E00E94C404B3
:100B70002197F1F763E081E194E00E94C40483E5EA
:100B800092E00197F1F762E081E194E00E94C404F1
:100B90008091200480620E94440584E080932104B7
:100BA0008CE00E9444050E944A0582E08093220462
:100BB00086E0DF91CF910C94440580620E94440549
:100BC0008BE496E40197F1F78091200480620E9403
:100BD000440583E592E00197F1F78091200480625B
:100BE0000E944405D5CF41E00E94F10481E090E0ED
:100BF0000895CF92DF92EF92FF926C01990FEE0869
:100C0000FF08F7FE16C041E06DE281E194E00E942A
:100C1000F10466277727CB016C197D098E099F099E
:100C20004AE00E9453040196FF90EF90DF90CF902E
:100C300008954AE0C701B601FF90EF90DF90CF9092
:100C40000C945304CF93DF9385ED8093BC00809187
:100C5000150390911603A0911703B09118030796FE
:100C6000A11DB11D23E0B695A795979587952A9567
:100C7000D1F72091BC0024FD03C010925D0336C063
:100C8000409115035091160360911703709118035A
:100C9000452B462B472B69F30097A105B10541F081
:100CA00025E32A95F1F700000197A109B109E1CFE9
:100CB0008091140391E0909313038823B9F0C091BD
:100CC000B800D091BA008091BC008A7B8093BC00B0
:100CD00060E084E10E94F80260E085E10E94F80291
:100CE0000E94EB03D093BA00C093B800DF91CF917C
:100CF00008950C940A0CCF93DF9386E993E00E9449
:100D00001904EC010E944A05CE010E94F905C09326
:100D1000F202DD27CE010E94790661E0680FCE0164
:100D2000DF91CF910C94120C1F920F920FB60F927D
:100D300011242F933F938F939F93AF93BF938091F1
:100D4000920390919303A0919403B09195033091F5
:100D5000830323E0230F2D3758F50196A11DB11D04
:100D6000209383038093920390939303A09394031F
:100D7000B09395038091840390918503A09186039D
:100D8000B09187030196A11DB11D809384039093B8
:100D90008503A0938603B0938703BF91AF919F9182
:100DA0008F913F912F910F900FBE0F901F9018952C
:100DB00026E8230F0296A11DB11DD2CF1F920F92DC
:100DC0000FB60F9211240BB60F922F933F934F93B0
:100DD0005F936F937F938F939F93AF93BF93EF93A3
:100DE000FF938091B900887F803609F44DC008F0E8
:100DF00040C0883209F4A9C028F5803109F49DC0AB
:100E0000C8F4882309F4FBC0883009F496C0FF9128
:100E1000EF91BF91AF919F918F917F916F915F9172
:100E20004F913F912F910F900BBE0F900FBE0F90DF
:100E30001F901895883109F488C0803241F780935B
:100E40005C0314C0803409F49DC040F48033B9F3CE
:100E50008833E9F680935C0385ECB0C0803509F4F3
:100E600085C0883509F496C0883489F60E94220628
:100E7000CECF883909F48CC038F5883729F050F482
:100E8000883611F0803719F683E080935D03109265
:100E90005B0357C0883809F47BC0803919F080386B
:100EA00009F0B5CF80915B03803208F071C0E0910A
:100EB0005B0381E08E0F80935B038091BB00F0E0C9
:100EC000E55CFC4F80833DC0803B39F0E0F4803A24
:100ED00009F479C0883A09F09ACF84E080935D03E1
:100EE00010923A0310923903E0918A03F0918B0338
:100EF00019958091390381110FC081E080933903E6
:100F00001092190309C0803C09F4A6CF883C09F46B
:100F1000A3CF883B09F07BCFE0913A0381E08E0FAD
:100F200080933A03F0E0E75EFC4F80818093BB0042
:100F300090913A038091390329C080918203809374
:100F4000BB0085EC8093BC0062CF909181038091BF
:100F50008003981758F5E091810381E08E0F80930C
:100F60008103F0E0E05AFC4F8081E9CFE0918103FA
:100F700081E08E0F809381038091BB00F0E0E05A06
:100F8000FC4F808390918103809180039817C8F271
:100F900085E8D8CFE091810381E08E0F80938103B3
:100FA0008091BB00F0E0E05AFC4F808380915F03AA
:100FB00081115CCF81E080935E0384EA8093BC0062
:100FC00010925D0324CF85EC8093BC0010925D03EA
:100FD00080915B03803230F4E0915B03F0E0E55CEC
:100FE000FC4F108260915B0370E0E0918803F09108
:100FF00089038BE393E0199510925B0308CF10925D
:101000005C0334CF109299031092980388EE93E01A
:10101000A0E0B0E080939A0390939B03A0939C037D
:10102000B0939D0387E192E090939703809396039A
:10103000109214041092130483E392E0909312042C
:10104000809311048CE0809315048BE08093160448
:101050008AE08093170485E08093180484E08093ED
:10106000190483E080931A0482E080931B04109299
:101070001C0410921D0410921E0410921F04109262
:10108000200481E00E9452051092A4031092A8034C
:101090001092A7031092A90389E292E09093A30310
:1010A0008093A203EEEBF3E0108214821382158288
:1010B000369683E0EA3FF807B9F783E092E0909331
:1010C00005048093040480E092E0909307048093E9
:1010D000060484E08093080483E08093090487E099
:1010E00092E090930304809302048AE090E090934E
:1010F0000B0480930A0484EF91E090930D04809395
:101100000C041092100410920F041092FE0310921F
:10111000FF03109200041092010410920E0408952F
:10112000789484B5826084BD84B5816084BD85B5C2
:10113000826085BD85B5816085BD80916E008160CE
:1011400080936E0010928100809181008260809374
:101150008100809181008160809381008091800076
:101160008160809380008091B10084608093B100A1
:101170008091B00081608093B00080919100826086
:101180008093910080919100816080939100809183
:1011900090008160809390008091A1008260809394
:1011A000A1008091A10081608093A1008091A000A6
:1011B00081608093A0008091210182608093210151
:1011C00080912101816080932101809120018160C3
:1011D0008093200180917A00846080937A008091CE
:1011E0007A00826080937A0080917A008160809397
:1011F0007A0080917A00806880937A001092C10012
:1012000082E00E94520510928F0310928E0310927A
:101210008D0310928C030E94EB038DE092E090937B
:101220008B0380938A038EE092E0909389038093EE
:10123000880382E08093BA008BE796E09093910355
:1012400080939003812C912C5401839466246A949A
:10125000762C50E0C52E50E0D52E21E020930E04D0
:101260008FB7F89440919203509193036091940347
:10127000709195038FBF8091FE039091FF03A09121
:101280000004B0910104481B590B6A0B7B0B809141
:101290000A0490910B04B0E0A0E084179507A6071C
:1012A000B70708F014C1C0E080910804C81760F4C3
:1012B000E0910404F0910504EC0FF11D62E08081DF
:1012C0000E942A03CF5FF0CF312C80910904381699
:1012D00008F060C0C32DD0E0E0910604F09107044F
:1012E000EC0FFD1F61E080810E942A03E09106045B
:1012F000F0910704EC0FFD1F60E080810E94F8026E
:1013000095018401032C04C0000F111F221F331FFD
:101310000A94D2F7780100951095212C8091080449
:10132000281610F5422C512CE0910404F09105048C
:10133000E40DF51D80810E94CC02A2014C5F5F4F3D
:10134000FA01EE0FFF1FEE55FC4F892B41F480810F
:1013500091818E299F29918380832394DFCF80817F
:10136000918180239123F7CFE0910604F091070447
:10137000EC0FFD1F61E080810E94F802809106045D
:1013800090910704C80FD91F60E088810E942A034A
:1013900033949BCFC2EAD3E07E01F701878D90A101
:1013A000892B21F4148E768E658E11A2F6E0EF0E55
:1013B000F11C2EEDE21623E0F20679F7512C809114
:1013C0000804581608F051C0412C052D10E0000FFC
:1013D000111F06551C4F20910904421608F043C006
:1013E000F80160817181042C02C0769567950A949A
:1013F000E2F7529E90011124240D311DE2EAF3E040
:1014000080E0458D568D2417350709F401C28F5FA2
:1014100036968A30B1F760FF24C0E2EAF3E090E04C
:1014200080E0448D411118C0E0910204F091030462
:10143000E20FF31F408156E0589FF001599FF00DD5
:101440001124EE55FC4F448F368F258F10A2178E36
:1014500061E00E949D0105C0019636968A30910593
:1014600001F74394B8CF5394AACF80E099A191118A
:10147000892F2696EC16FD06C9F79FB7F894409180
:1014800092035091930360919403709195039FBFD1
:101490004093FE035093FF03609300047093010494
:1014A0008823A9F08091C303882389F08091C10328
:1014B0009091C203019759F4C091BE03C1110AC0B3
:1014C000C114D10409F4C9CE0E940000C6CE109206
:1014D0000E04F6CF0E944A05C23309F072C08BE3B6
:1014E00092E00E94A10490E080E00E947906482EDC
:1014F00081E090E00E947906382E82E090E00E9420
:101500007906582E83E090E00E947906E82E84E068
:1015100090E00E947906F82E85E090E00E9479061E
:10152000082F86E090E00E947906182F87E090E06F
:101530000E947906D82F88E090E00E947906C82F93
:1015400089E090E00E947906E42DE30DFF27FF1F5C
:10155000AF01450D511D2A014E0C511CF201EF0D3A
:10156000F11D7F01E00EF11C9701210F311D890152
:101570000D0F111DC00FD12FD11DC80FD11DC93E98
:1015800033E0D30764F0D0E0C0E060E0CE010E9419
:10159000120C2196CA30D105C1F7D0E0C0E0E0912D
:1015A0002404E23060F4E150F0E0EF5EFB4F848908
:1015B00080680E944405CE010E94F90581CFE1E0D8
:1015C000F3CFC53339F40E944A0589E492E00E94C2
:1015D000A10476CF86EE92E0C833C9F78EE492E09C
:1015E0000E94A1040E948F030E944A058AE592E0AE
:1015F0000E94A10490E080E00E947906C82FD0E00C
:10160000CE010E94F9050E948F030E944A0585E6DB
:1016100092E00E94A10481E090E00E947906E82E09
:10162000F12CC7010E94F905CE15DF050CF4D3C0DB
:101630007E01D0E0C0E00E948F030E944A0580E74F
:1016400092E00E94A10482E090E00E947906082FB7
:1016500010E0C8010E94F905E016F1060CF4BEC0C6
:1016600087010E948F030E944A058BE792E00E9447
:10167000A10483E090E00E947906E82EF12CC701D6
:101680000E94F9050E151F050CF4ABC078010E94ED
:101690008F030E944A0586E892E00E94A10484E03C
:1016A00090E00E947906082F10E0C8010E94F90519
:1016B000E016F1060CF498C087010E948F030E9487
:1016C0004A0581E992E00E94A10485E090E00E9431
:1016D0007906E82EF12CC7010E94F9050E151F05A9
:1016E0000CF485C078010E948F030E944A058CE9A2
:1016F00092E00E94A10486E090E00E947906082F03
:1017000010E0C8010E94F905E016F1060CF472C061
:1017100087010E948F030E944A0587EA92E00E9497
:10172000A10487E090E00E947906E82EF12CC70121
:101730000E94F9050E151F050CF45FC078010E9488
:101740008F030E944A0582EB92E00E94A10488E088
:1017500090E00E947906082F10E0C8010E94F90568
:10176000E016F1060CF44CC087010E948F030E9422
:101770004A058DEB92E00E94A10489E090E00E946E
:101780007906E82EF12CC7010E94F9050E151F05F8
:10179000D4F178010E948F030E944A0588EC92E000
:1017A0000E94A104CE010E94F905E0912404E230D8
:1017B00068F5E150F0E0EF5EFB4F848980680E949D
:1017C000440588ED92E00E94A104C7010E94F9053A
:1017D0008EED92E0FCCEC1E0D0E02DCFC2E0D0E0B3
:1017E00040CFC3E0D0E053CFC4E0D0E066CFC5E047
:1017F000D0E079CFC6E0D0E08CCFC7E0D0E09FCF7B
:10180000C8E0D0E0B2CFC9E0D0E0C4CFE1E0D2CFB1
:1018100061701FCEF999FECF92BD81BDF89A9927CC
:1018200080B50895262FF999FECF1FBA92BD81BDCC
:1018300020BD0FB6F894FA9AF99A0FBE0196089552
:10184000A1E21A2EAA1BBB1BFD010DC0AA1FBB1FC4
:10185000EE1FFF1FA217B307E407F50720F0A21B36
:10186000B30BE40BF50B661F771F881F991F1A94A3
:1018700069F760957095809590959B01AC01BD01CD
:10188000CF010895EE0FFF1F881F8BBF0790F691C1
:08189000E02D1994F894FFCF3C
:1018980018191A1B1C1D1E313233343536373839A6
:1018A8002A3023000000003E043304500409042CAD
:1018B8000419040A040000000066032603F5020068
:1018C800000000F305380250044F04746F74616C13
:1018D80020766F7465733A200073746F70007265B8
:1018E80073756C742069733A20006E756D62657249
:1018F80020303A20006E756D62657220313A200002
:101908006E756D62657220323A20006E756D626583
:101918007220333A20006E756D62657220343A2069
:10192800006E756D62657220353A20006E756D62C5
:10193800657220363A20006E756D62657220373AFE
:1019480020006E756D62657220383A20006E756DE4
:1019580062657220393A20007468652077696E6E76
:1019680065722069733A20007769746820002076D0
:101978006F7465732E004E6F742056616C69642114
:0219880000005D
:00000001FF
